:020000040800F2
:10000000000002204D120008890800088B08000833
:100010008D0800088F080008910800080000000003
:10002000000000000000000000000000930800082D
:1000300095080008000000009708000899080008CB
:100040009D1200089D1200089D1200089D120008D4
:100050009D1200089D1200089D1200089D120008C4
:100060009D1200089D1200089D1200089D120008B4
:100070009D1200089D1200089D1200089D120008A4
:100080009D1200089D120008A1080008B108000890
:100090009D1200089D1200089D1200089D12000884
:1000A0009D1200089D1200089D1200089D12000874
:1000B0009D1200089D1200089D1200089D12000864
:1000C0009D1200089D1200089D1200089D12000854
:1000D0009D1200089D1200089D1200089D12000844
:1000E0009D1200089D1200089D1200089D12000834
:1000F0009D1200089D1200089D1200089D12000824
:100100009D1200089D1200089D1200089D12000813
:100110009D1200089D1200089D1200089D12000803
:100120009D120008C1080008D10800089D120008AF
:100130009D1200089D1200089D120008E1080008A9
:100140009D1200089D1200089D1200089D120008D3
:100150009D120008F1080008010900089D1200081E
:100160009D1200089D1200089D1200089D120008B3
:100170009D1200089D1200089D120008000000005A
:080180009D1200089D12000809
:1001880053B94AB9002908BF00281CBF4FF0FF31F6
:100198004FF0FF3000F00CB8ADF1080C6DE904CE5B
:1001A80002F0B4FFDDF804E0DDE9022304B0704793
:1001B800704700BF0348044B834202D0034B03B18E
:1001C80018477047100000201000002000000000B1
:1001D8000548064B1B1AD90F01EBA301491002D0A1
:1001E800034B03B11847704710000020100000208F
:1001F8000000000010B5064C237843B9FFF7DAFF7A
:10020800044B13B10448AFF300800123237010BDE1
:1002180010000020000000009435000808B5054BC8
:100228001BB105490548AFF30080BDE80840FFF75A
:10023800CFBF00BF00000000140000209435000864
:1002480000B585B0002300930193029303931748E8
:10025800174A02604FF4803242608360036103767C
:1002680080F820304FF08052C2624FF00062826204
:10027800C3600122C26180F83030426101F0F8F8B1
:1002880068B9082300930123019300230293694668
:10029800064801F0BDF928B905B05DF804FB00F087
:1002A800EFF9EEE700F0ECF9F6E700BF2C000020CC
:1002B8000022014010B588B00023039304930593EE
:1002C800069307930268174B9A4201D008B010BDF5
:1002D8000024019403F58B335A6C42F480625A640B
:1002E8005A6C02F480620192019A02941A6B42F0ED
:1002F80020021A631B6B03F020030293029B4FF446
:10030800806303930323049303A9074801F056FE6F
:1003180022462146122001F067FC122001F074FCED
:10032800D4E700BF002201400014024008B50C4881
:100338000C4B03601023436000238360C360036198
:1003480043610376012242768376C3760377437747
:1003580001F029FA00B908BD00F092F9FBE700BFE7
:10036800A00000200064004008B50C480C4B036056
:100378001023436000238360C360036143610376F5
:10038800012242768376C3760377437701F00BFA2E
:1003980000B908BD00F074F9FBE700BF7800002041
:1003A8000068004010B58AB00023059306930793B0
:1003B8000893099303683D4A934204D03C4A934208
:1003C80034D00AB010BD3B4A136801331360012BC7
:1003D8001FD000240194384B1A6B42F008021A63AC
:1003E8001B6B03F008030193019B0323059302226F
:1003F800069208930923099305A9304801F0DEFD08
:1004080022462146132001F0EFFB132001F0FCFBEC
:10041800D7E700230093284B1A6C42F000721A6445
:100428001B6C03F000730093009BD2E70023029338
:10043800214B1A6C42F080621A641B6C03F08063D3
:100448000293029B1B4A136801331360012B20D0CF
:1004580000240494184B1A6B42F002021A631B6BB7
:1004680003F002030493049B60230593022306937D
:10047800032308930923099305A9114801F09EFD58
:10048800224621463F2001F0AFFB3F2001F0BCFB94
:1004980097E700230393084B1A6C42F000721A6422
:1004A8001B6C03F000730393039BD1E700640040C7
:1004B800006800407400002000380240000C024030
:1004C8000004024010B582B000240194154B1A6B49
:1004D80042F480021A631B6B03F480030193019BAF
:1004E80022462146392001F07FFB392001F08CFBA0
:1004F800224621463A2001F077FB3A2001F084FB9E
:1005080022462146452001F06FFB452001F07CFB87
:1005180022462146462001F067FB462001F074FB85
:1005280002B010BD003802402DE9F0418EB0002421
:1005380009940A940B940C940D9400944C4B1A6BE8
:1005480042F002021A631A6B02F002020092009A49
:1005580001941A6B42F040021A631A6B02F04002CF
:100568000192019A02941A6B42F001021A631A6B03
:1005780002F001020292029A03941A6B42F00802F6
:100588001A631A6B02F008020392039A04941A6B16
:1005980042F004021A631A6B02F004020492049AED
:1005A80005941A6B42F480721A631A6B02F4807213
:1005B8000592059A06941A6B42F080021A631A6B28
:1005C80002F080020692069A07941A6B42F0200203
:1005D8001A631A6B02F020020792079A08941A6BA2
:1005E80042F010021A631B6B03F010030893089B78
:1005F800DFF8808022464FF4E051404601F0D8FDF4
:100608001D4E22461021304601F0D2FD1B4F2246D6
:100618000121384601F0CCFD4FF4E0530993012540
:100628000A950B940C9409A9404601F0C7FC09955A
:100638004FF488130A930B9409A9304601F0BEFCC5
:10064800102309930A950B944FF00208CDF83080D7
:1006580009A9304601F0B2FC09950A950B94CDF82A
:10066800308009A9384601F0A9FC0EB0BDE8F08138
:1006780000380240001C0240000002400004024012
:1006880072B6FEE700B595B03022002108A802F046
:100698009BFE00230393049305930693079301930A
:1006A8001F4A116C41F080511164126C02F08052A3
:1006B8000192019A02931B4A116841F4804111602A
:1006C800126802F480420292029A022208920121E0
:1006D8000B9110210C910E920F9308231093A823CD
:1006E800119312920423139308A801F067FD98B997
:1006F8000F23039302230493002305934FF4A0537D
:1007080006934FF480530793052103A801F0A6FF31
:1007180020B915B05DF804FBFFF7B2FFFFF7B0FF93
:10072800003802400070004008B500F0DBFDFFF71C
:10073800A9FFFFF7F9FEFFF7C5FEFFF7F7FDFFF783
:1007480013FEFFF77DFD00F009FC00F03DFC00F012
:100758000FF800F0C1FA00F027FB00F0D7F800F01E
:10076800FBF800F077FB00F015FC00F027FAFEE735
:1007780008B50D480D4B03604FF4827343600023A6
:100788008360C360036143614FF400728261C36197
:100798000362436283620A23C36202F035F800B938
:1007A80008BDFFF76DFFFBE7C800002000300140DF
:1007B800F0B589B000230393049305930693079338
:1007C80002681E4B9A4201D009B0F0BD0024009483
:1007D80003F584335A6C42F480525A645A6C02F41A
:1007E80080520092009A01941A6B42F002021A6336
:1007F8001A6B02F002020192019A02941A6B42F0FB
:1008080001021A631B6B03F001030293029B182376
:10081800039302270497032606960525079503A93F
:10082800074801F0CBFB80230393049705940696B1
:10083800079503A9034801F0C1FBC5E70030014053
:10084800000402400000024082B0002100910B4BDE
:100858005A6C42F480425A645A6C02F48042009204
:10086800009A01911A6C42F080521A641B6C03F0D2
:1008780080530193019B02B0704700BF00380240CB
:10088800FEE7FEE7FEE7FEE7FEE7704770477047C2
:1008980008B500F041FD08BD08B5024800F016FE95
:1008A80008BD00BF2C00002008B5024801F02EF852
:1008B80008BD00BFA000002008B5024801F090FA6A
:1008C80008BD00BF3003002008B5024801F088FACF
:1008D80008BD00BFF003002008B5024801F016F873
:1008E80008BD00BF7800002008B5024801F078FA7A
:1008F80008BD00BFD002002008B5024801F070FA18
:1009080008BD00BF900300207047000000B583B009
:100918000023009301930E480E4A026043608360EF
:100928004FF6FF72C260836102F0F8F850B90023F5
:10093800009301936946064802F0C0FA28B903B04B
:100948005DF804FBFFF79CFEF1E7FFF799FEF6E779
:10095800B00100200010004000B583B000230093D0
:1009680001930E480E4A0260436083604FF6FF729F
:10097800C260836102F0D2F850B90023009301935A
:100988006946064802F09AFA28B903B05DF804FBF4
:10099800FFF776FEF1E7FFF773FEF6E76801002040
:1009A8000014004086B00368304A93421BD0304A96
:1009B800934226D02F4A934230D02F4A93423AD0BE
:1009C8002E4A934244D02E4A934218D100230593CD
:1009D8002C4B5A6C42F002025A645B6C03F002031F
:1009E8000593059B0BE000230093264B5A6C42F0BD
:1009F80001025A645B6C03F001030093009B06B08C
:100A08007047002301931F4B1A6C42F002021A64CC
:100A18001B6C03F002030193019BF0E70023029390
:100A2800184B1A6C42F004021A641B6C03F004039E
:100A38000293029BE3E700230393124B1A6C42F0E4
:100A480010021A641B6C03F010030393039BD6E790
:100A5800002304930B4B1A6C42F020021A641B6C9F
:100A680003F020030493049BC9E700BF0000014082
:100A7800000400400008004000100040001400403E
:100A8800000401400038024070B58AB00023059385
:100A9800069307930893099303683F4A93420AD041
:100AA8003E4A93421FD03E4A934233D03D4A934236
:100AB80047D00AB070BD002300933B4B1A6B42F03D
:100AC80010021A631B6B03F010030093009B4FF492
:100AD800D4430593022306930123099305A93348B8
:100AE80001F06CFAE5E7002301932F4B1A6B42F0F3
:100AF80004021A631B6B03F004030193019B4FF478
:100B08008073059302230693099305A9284801F0E9
:100B180055FACEE700230293234B1A6B42F00802E2
:100B28001A631B6B03F008030293029B4FF4804384
:100B3800059302230693099305A91E4801F03EFA7E
:100B4800B7E700240394184B1A6B42F480721A63B7
:100B58001A6B02F480720392039A04941A6B42F09F
:100B680004021A631B6B03F004030493049BC02361
:100B78000593022606960325099505A90E4801F056
:100B88001DFA40230593069607940894099505A92C
:100B9800074801F013FA8CE7000001400004004008
:100BA80000080040000401400038024000100240E4
:100BB80000080240000C02400020024010B596B028
:100BC8000024129413941494159410941194099475
:100BD8000A940B940C940D940E940F9420222146A1
:100BE80001A802F0F1FB3A483A4B03604460846084
:100BF8004FF6FF73C36004614461846101F08EFFA6
:100C080000284AD14FF48053129312A9304802F0B9
:100C180050F8002844D12E4801F0ACFF002842D1FA
:100C280000231093119310A9294802F047F90028CE
:100C38003CD1002209920A920B920C920D920E92CC
:100C48000F9209A9224801F0F9FF002831D10422A6
:100C580009A91F4801F0F2FF70BB082209A91C4826
:100C680001F0ECFF58BB0C2209A9194801F0E6FF76
:100C780040BB0023019302930393049305934FF41D
:100C880000520692089301A9114802F05DF9E0B9F3
:100C98000F48FFF7F9FE16B010BDFFF7F1FCB1E7FA
:100CA800FFF7EEFCB7E7FFF7EBFCB9E7FFF7E8FC67
:100CB800BFE7FFF7E5FCCAE7FFF7E2FCCDE7FFF780
:100CC800DFFCD0E7FFF7DCFCD3E7FFF7D9FCDFE771
:100CD800880200200000014000B593B000230E9365
:100CE8000F931093119309930A930B930C930D93FD
:100CF8000793089300930193029303930493059336
:100D080006932748274A0260436083604FF6FF72C4
:100D1800C2600361836101F001FF00282ED14FF406
:100D280080530E930EA91E4801F0C3FF48BB1C4810
:100D380001F020FF40BB0423099310230A9309A95B
:100D4800174802F091F810BB20230793002308935B
:100D580007A9134802F0B2F8E0B900230093019301
:100D680002930493082269460D4801F067FFA0B971
:100D78000B48FFF789FE13B05DF804FBFFF780FC12
:100D8800CDE7FFF77DFCD2E7FFF77AFCD3E7FFF763
:100D980077FCD9E7FFF774FCDFE7FFF771FCE7E7BB
:100DA800400200200004004000B58FB000230A93E1
:100DB8000B930C930D930893099301930293039358
:100DC80004930593069307932048214A02604360E1
:100DD80083604FF6FF72C26003618023836101F074
:100DE8009DFE20BB4FF480530A930AA9174801F0CF
:100DF80060FFF8B9154801F0BDFEF0B9002308936B
:100E0800099308A9114802F059F8C8B900230193B9
:100E1800029303930593082201A90C4801F00EFFE1
:100E280088B90A48FFF730FE0FB05DF804FBFFF7FA
:100E380027FCD7E7FFF724FCDCE7FFF721FCDDE719
:100E4800FFF71EFCE2E7FFF71BFCEAE7F8010020CA
:100E58000008004010B596B000241294139414941E
:100E680015941094119409940A940B940C940D946D
:100E78000E940F942022214601A802F0A5FA3548C5
:100E8800354B0360446084604FF6FF73C3600461B0
:100E98004461846101F042FE002843D14FF480533D
:100EA800129312A92B4801F004FF00283DD12948CC
:100EB80001F060FE00283BD100231093119310A984
:100EC800244801F0FBFF002835D1002209920A923C
:100ED8000B920C920D920E920F9209A91D4801F0E7
:100EE800ADFE58BB042209A91A4801F0A7FE40BB71
:100EF800082209A9174801F0A1FE28BB0023019385
:100F080002930393049305934FF4005206920893B7
:100F180001A9104802F018F8C8B90E48FFF7B4FD47
:100F280016B010BDFFF7ACFBB8E7FFF7A9FBBEE7AB
:100F3800FFF7A6FBC0E7FFF7A3FBC6E7FFF7A0FB99
:100F4800D0E7FFF79DFBD3E7FFF79AFBD6E7FFF75C
:100F580097FBE2E7200100200004014008B50A4899
:100F68000A4B03600A4B436000238360C36003613C
:100F78000C2242618361C36102F098F800B908BD90
:100F8800FFF77EFBFBE700BFD804002000100140FC
:100F980040420F0008B50A480A4B03604FF4E1339A
:100FA800436000238360C36003610C224261836154
:100FB800C36102F07BF800B908BDFFF761FBFBE7EE
:100FC800940400200048004008B50A480A4B036012
:100FD8004FF4E133436000238360C36003610C2254
:100FE80042618361C36102F061F800B908BDFFF78F
:100FF80047FBFBE750040020001401402DE9F041B5
:101008008CB0044600230793089309930A930B9323
:1010180003687C4A934209D07B4A934275D07B4A45
:10102800934200F096800CB0BDE8F0810025009551
:10103800774B5A6C42F010025A645A6C02F0100254
:101048000092009A01951A6B42F002021A631A6B19
:1010580002F002020192019A02951A6B42F0010213
:101068001A631B6B03F001030293029B802307930F
:101078004FF00208CDF8208003270A9707260B9621
:1010880007A9644800F09AFF4FF400730793CDF85E
:10109800208009950A970B9607A95F4800F08EFFF4
:1010A8005E485F4B03604FF0006343608560C56036
:1010B8004FF48063036145618561C56105624562DE
:1010C80000F028FED8B9554BA3639C635548564B8E
:1010D80003604FF000634360402383600023C360D4
:1010E8004FF48062026143618361C36103624362BA
:1010F80000F010FE30B94B4B63639C6393E7FFF736
:10110800BFFAE0E7FFF7BCFAF5E700210391404B8F
:101118001A6C42F480221A641A6C02F48022039238
:10112800039A04911A6B42F004021A631B6B03F0D2
:1011380004030493049B4FF440630793022308932A
:1011480003230A9307230B9307A9384800F036FFB7
:1011580069E7002505952E4B5A6C42F020025A6427
:101168005A6C02F020020592059A06951A6B42F015
:1011780040021A631B6B03F040030693069B4FF46F
:10118800844307930223089303230A9308230B93AA
:1011980007A9274800F012FF2648274B03604FF0A5
:1011A800206343608560C5604FF4806303614561D7
:1011B8008561C5610562456200F0ACFDD8B91D4B7B
:1011C800A3639C631D481E4B03604FF0206343607C
:1011D800402383600023C3604FF48062026143614F
:1011E8008361C3610362436200F094FD30B9134B1D
:1011F80063639C6317E7FFF743FAE0E7FFF740FAFA
:10120800F5E700BF0010014000480040001401400D
:10121800003802400004024000000240F0030020B1
:101228004064024090030020B86402400008024075
:10123800001802403003002028640240D002002039
:10124800A0640240DFF834D00D480E490E4A00234E
:1012580002E0D458C4500433C4188C42F9D30B4A62
:101268000B4C002301E013600432A242FBD3FFF7CA
:101278004BFB02F0FBF8FFF757FA7047000002201B
:101288000000002010000020E035000810000020B9
:10129800B8060020FEE7000010B504460E4B1A7889
:1012A8004FF47A73B3FBF2F30C4A1068B0FBF3F017
:1012B80000F0B8FC68B90F2C01D901200AE000221F
:1012C80021464FF0FF3000F08FFC054B1C600020DA
:1012D80000E0012010BD00BF040000200000002035
:1012E8000800002008B50B4B1A6842F400721A6017
:1012F8001A6842F480621A601A6842F480721A60AE
:10130800032000F05FFC0F20FFF7C6FFFFF79CFAF1
:10131800002008BD003C0240034A1168034B1B78BB
:101328000B441360704700BF1C0500200400002018
:10133800014B1868704700BF1C0500204A4B5A68CB
:1013480022F440325A605A6841680A435A60026877
:10135800536823F48073536002685368016943EA51
:10136800012353600268536823F040735360026896
:10137800536881680B4353600268936823F40063E1
:10138800936002689368C1680B439360826A374B25
:101398009A4257D00268936823F07063936002689A
:1013A8009368816A0B4393600268936823F0405303
:1013B800936002689368C16A0B43936002689368FC
:1013C80023F00203936002689368017E43EA4103B5
:1013D800936090F82030002B3FD00268536843F4A4
:1013E800006353600268536823F4604353600168E4
:1013F8004B68426A013A43EA42334B600268D36A57
:1014080023F47003D3620168CB6AC269013A43EAE4
:101418000253CB620268936823F4007393600268F6
:10142800936890F8301043EA412393600268936808
:1014380023F48063936002689368416943EA8123D7
:10144800936070470268936823F070639360026842
:10145800936823F040539360B0E70268536823F41D
:1014680000635360CAE700BF002301400100000F7A
:1014780038B310B50446036C43B1236C13F0100F56
:101488000BD00120002384F83C3010BDFEF712FF7A
:101498000023636484F83C30EFE7236C23F488531B
:1014A80023F0020343F0020323642046FFF746FFBC
:1014B80000206064236C23F0030343F001032364DA
:1014C800E0E70120704770477047704770B50446E1
:1014D80003681E685D6816F0020F2FD005F0200221
:1014E80062B3026C12F0100F03D1026C42F4007266
:1014F80002649A6812F0405F19D1227EBAB9DA6A9A
:1015080012F4700F03D09A6812F4806F0FD15A68E2
:1015180022F020025A60236C23F480732364236C26
:1015280013F4805F03D1236C43F001032364204646
:10153800FFF7C9FF23686FF012021A6005F08003F5
:1015480016F0040F37D0002B35D0236C13F0100F92
:1015580003D1236C43F40053236423689A6812F47C
:10156800401F21D19A6B12F4401F03D09A6812F4DD
:10157800806F19D15A6812F4806F15D19A6812F0E9
:10158800405F11D1227E7AB95A6822F080025A60EF
:10159800236C23F480532364236C13F4807F03D1DA
:1015A800236C43F001032364204600F0FBF8236812
:1015B8006FF00C021A6005F0400316F0010F05D019
:1015C80023B123681B6813F0010F06D105F080656D
:1015D80016F0200F00D065B970BD236C43F480333A
:1015E80023642046FFF770FF23686FF001021A603A
:1015F800ECE7636C43F00203636423686FF0200533
:101608001D602046FFF761FF23681D60E4E70000C6
:1016180030B482B00022019290F83C20012A00F0F8
:10162800B6800346012280F83C200A68092A40D97E
:101638000468E06892B202EB42021E3A4FF0070CCF
:101648000CFA02F220EA0202E2601C68E0680A88EA
:1016580002EB42021E3A8D6805FA02F20243E2608A
:101668004A68062A3CD81C68606B02EB8202053A7D
:101678004FF01F0C0CFA02F220EA020262631C68A7
:10168800606B4A6802EB8202053AB1F800C00CFAB6
:1016980002F20243626318683E4A904250D01868CA
:1016A8003C4A904255D0002083F83C0002B030BC40
:1016B80070470468206992B202EB42024FF0070CAF
:1016C8000CFA02F220EA020222611C6820690A88E8
:1016D80002EB42028D6805FA02F202432261BFE77B
:1016E8000C2A16D81D68286B02EB8202233A1F24A5
:1016F80004FA02F220EA02022A631D68286B4A688B
:1017080002EB8202233A0C8804FA02F202432A63AB
:10171800C1E71D68E86A02EB8202413A1F2404FA15
:1017280002F220EA0202EA621D68E86A4A6802EBED
:101738008202413A0C8804FA02F20243EA62AAE7FA
:101748000A68122AABD11448426842F48002426007
:10175800A5E70A68103A012AA5D80F48426842F45A
:10176800000242600A68102A9DD10C4A12680C498E
:10177800A1FB0212920C02EB82025200019202E0DB
:10178800019A013A0192019A002AF9D18BE70220C5
:101798008CE700BF0020014000230140000000202A
:1017A80083DE1B437047002800F0A18038B504464B
:1017B80090F82030D3B12268136843F00103136016
:1017C800FFF7B6FD054623685A6812F0010F10D1DD
:1017D800FFF7AEFD401B0A28F5D9636A43F40033CE
:1017E8006362052384F82030012038BDFEF7DAFD56
:1017F800E1E71A6822F002021A60FFF799FD054630
:1018080023685A6812F0020F0DD0FFF791FD401BB4
:101818000A28F5D9636A43F400336362052384F820
:1018280020300120E1E7227E012A3DD01A6822F00B
:1018380080021A60637E012B3BD02268136823F074
:1018480040031360A37E012B39D02268136823F06C
:1018580020031360E37E012B37D02268136843F01E
:1018680010031360237F012B35D02268136823F0FF
:1018780008031360637F012B33D02268136823F0B9
:1018880004031360A368E26813432269134362697F
:1018980013436268013A21681343CB6100206062F8
:1018A800012384F82030A0E71A6842F080021A6009
:1018B800C0E72268136843F040031360C2E7226858
:1018C800136843F020031360C4E72268136823F009
:1018D80010031360C6E72268136843F00803136017
:1018E800C8E72268136843F004031360CAE70120BD
:1018F8007047704770477047704770477047704728
:101908007047704770477047704770472DE9F84F28
:10191800054603685C69D3F804809F68D3F80CA077
:10192800D3F81090D3F818B014F001063BD017F094
:10193800010616D001229A6017F0020F08D117F09D
:10194800040F0CD117F0080606D04FF4805608E0B3
:10195800FFF7CFFF002604E0FFF7CEFF01E04FF4CA
:10196800006617F4807F0DD02B684FF480729A6060
:1019780017F4007F40F0968017F4806F00F096808F
:1019880046F4005617F4803F0DD02B684FF4803290
:101998009A6017F4003F40F0938017F4802F00F00E
:1019A800938046F4004614F0080F07D01AF0100F81
:1019B80004D046F400762B681022DA6014F0040F85
:1019C80003D01AF0080F40F0898014F0020F05D0F8
:1019D8002B68DB6813F0030F40F0878014F0400F8A
:1019E80007D019F0100F04D046F480662B68102237
:1019F8001A6114F0200F02D019F0080F79D114F0F1
:101A0800100F04D02B681B6913F0030F78D114F45E
:101A1800003F02D018F0100F76D114F4803F02D0A6
:101A280018F0080F77D114F4004F37D018F0040FCE
:101A380031D014F4807F04D01BF0010F01D046F0A0
:101A4800010614F4007F04D01BF0020F01D046F009
:101A5800020614F4806F04D01BF0040F01D046F086
:101A6800040614F4006F16D01BF0700B13D0BBF1F2
:101A7800400F66D056D8BBF1200F5CD0BBF1300FB9
:101A88005CD0BBF1100F01D146F008062A689369B3
:101A980023F0700393612B6804225A60002E56D1FC
:101AA800BDE8F88F2846FFF725FF6BE717F4006FAE
:101AB80002D046F4804665E72846FFF71EFF61E737
:101AC8002846FFF718FF6EE717F4002F02D046F4F8
:101AD800803668E72846FFF711FF64E72B6808227D
:101AE800DA602846FFF70CFF6FE72846FFF707FF85
:101AF80074E72B6808221A612846FFF703FF7EE780
:101B08002846FFF7FEFE82E72B6810225A60284617
:101B1800FFF7F9FE81E72B6808225A602846FFF78D
:101B2800F3FE80E7BBF1500F0ED0BBF1600FADD1D3
:101B380046F48076AAE746F01006A7E746F02006A6
:101B4800A4E746F04006A1E746F080069EE76B6AE8
:101B580033436B622846FFF7D8FEA1E7002808DB6D
:101B68000901C9B200F1604000F5614080F8001336
:101B7800704700F00F000901C9B2014B19547047B2
:101B880014ED00E000B500F00700C0F1070CBCF14F
:101B9800040F28BF4FF0040C031D062B0FD9C31EDA
:101BA8004FF0FF3E0EFA0CF021EA000199400EFAC0
:101BB80003FE22EA0E0241EA02005DF804FB00235C
:101BC800EEE70000074AD36823F4E0631B041B0C0C
:101BD800000200F4E060034343F0BF6343F40033C2
:101BE800D360704700ED00E010B50446054BD86897
:101BF800C0F30220FFF7C6FF01462046FFF7AEFFFD
:101C080010BD00BF00ED00E0002807DB00F01F0258
:101C1800400901239340024A42F82030704700BF30
:101C280000E100E00138B0F1807F0BD24FF0E023F3
:101C38005861054AF02182F8231000209861072294
:101C48001A6170470120704700ED00E010B4036886
:101C5800D9B21039094AA2FB01421209084CA25C08
:101C6800C2655F2906D96FF3090304338365806D64
:101C780010BC70476FF309038365F8E7ABAAAAAAFB
:101C8800C4350008836A826992B9012B0AD0022BF5
:101C980002D00BB100207047C36A13F0807F28D1AF
:101CA80000207047C36AB3F1C07F24D0002070477A
:101CB800B2F5005F09D0022B25D9032B25D1C36AC1
:101CC80013F0807F23D100207047032B03D8DFE86F
:101CD80003F01404140A00207047C36A13F0807FCD
:101CE8000DD100207047C36AB3F1C07F09D000202E
:101CF800704701207047012070470120704701207C
:101D0800704701207047012070470020704701206C
:101D18007047000070B50446FFF70AFB002C5BD043
:101D28000546022384F83530002384F834302268CD
:101D3800136823F00103136023681A6812F0010F77
:101D48000AD0FFF7F5FA431B052BF5D92023636565
:101D5800032084F8350070BD1A6820491140626874
:101D6800A0680243E06802432069024360690243B5
:101D7800A0690243E0690243206A02430A43616A98
:101D880004291ED01A602668756925F00705636A5C
:101D98001D43042B07D1A36A1D43E36A1BB12046E8
:101DA800FFF770FF90B975612046FFF74FFFE26DAE
:101DB8003F239340836000206065012384F8353019
:101DC800C9E7E16A206B01430A43DBE74023636507
:101DD800012084F83500BEE70120BCE73F8010F001
:101DE800F0B583B0044600230193724B1D68724B13
:101DF800A3FB0535AD0A876D3E68C26D0823934085
:101E0800334210D003681A6812F0040F0BD01A6816
:101E180022F004021A60C26D08239340BB60436D30
:101E280043F001034365E26D01239340334209D037
:101E38002268526912F0800F04D0BB60636D43F0D2
:101E480002036365E26D04239340334209D022689C
:101E5800126812F0020F04D0BB60636D43F00403F4
:101E68006365E26D10239340334224D022681268E0
:101E780012F0080F1FD0BB6023681A6812F4802F75
:101E88000DD01B6813F4002F04D1236C9BB120469E
:101E9800984710E0A36C73B1204698470BE01A6886
:101EA80012F4807F03D11A6822F008021A60236CAA
:101EB8000BB120469847E26D20239340334255D01A
:101EC8002268126812F0100F50D0BB6094F83530B9
:101ED800DBB2052B0ED023681A6812F4802F33D09A
:101EE8001B6813F4002F2AD1636C002B3ED02046C8
:101EF80098473BE02268136823F0160313602268B2
:101F0800536923F080035361236CA3B122681368DB
:101F180023F008031360E26D3F239340BB60012365
:101F280084F83530002384F83430236D002B3FD0FB
:101F3800204698473CE0A36C002BE7D1EBE7E36B26
:101F4800A3B12046984711E01A6812F4807F09D19E
:101F58001A6822F010021A60012384F83530002331
:101F680084F83430E36B0BB120469847636DFBB1BE
:101F7800636D13F0010F17D0052384F835302268FC
:101F8800136823F001031360019B01330193AB42F3
:101F980004D823681B6813F0010FF5D1012384F8D6
:101FA8003530002384F83430E36C0BB12046984771
:101FB80003B0F0BD00000020B5814E1B00230F2B9D
:101FC80000F2EC8030B583B068E085684FEA430ED4
:101FD800032404FA0EF425EA0405CC6804FA0EF486
:101FE8002C438460446824EA02044A68C2F300125D
:101FF8009A40224342605FE0DC08083450F824200D
:1020080003F00705AD004FF00F0E0EFA05FE22EAA9
:102018000E0E0A69AA4042EA0E0240F824205FE048
:10202800072200E0002202FA0EF22A4302345C4D35
:1020380045F824205B4A94686FEA0C0224EA0C05F0
:10204800D1F804E01EF4801F01D04CEA0405554C79
:10205800A560E46802EA0405D1F804E01EF4001F54
:1020680001D04CEA04054F4CE560646802EA0405B7
:10207800D1F804E01EF4003F01D04CEA0405494CB5
:102088006560246822404D6815F4803F01D04CEA11
:102098000402444C226001330F2B7DD801229A4060
:1020A8000C6804EA020C32EA0404F4D14C6804F027
:1020B8000304013C012C88D94A6802F00302032A70
:1020C80009D0C4685D000322AA4024EA02048A6891
:1020D800AA402243C2604A6802F00302022A8BD057
:1020E80004684FEA430E032202FA0EF224EA0204BD
:1020F8004A6802F0030202FA0EF2224302604A68BA
:1021080012F4403FC7D000220192274A546C44F48D
:1021180080445464526C02F480420192019A9C08F3
:10212800A51C1F4A52F8255003F0030E4FEA8E0EE5
:102138000F2202FA0EF225EA02051C4A90423FF4E9
:1021480071AF02F5806290421AD002F58062904227
:1021580018D002F58062904216D002F58062904253
:1021680014D002F58062904212D002F5806290424B
:1021780010D002F5806290423FF452AF082252E735
:10218800012250E702224EE703224CE704224AE7E5
:10219800052248E7062246E703B030BD704700BF76
:1021A80000380140003C0140003802400000024075
:1021B8000AB181617047090481617047002800F005
:1021C800E08170B582B00446036813F0010F3BD07C
:1021D8009F4B9B6803F00C03042B2CD09C4B9B68F3
:1021E80003F00C03082B21D06368B3F5803F4FD070
:1021F800B3F5A02F52D0964B1A6822F480321A6099
:102208001A6822F480221A606368002B50D0FFF706
:102218008FF805468E4B1B6813F4003F14D1FFF767
:1022280087F8401B6428F5D90320B1E1884B5B6827
:1022380013F4800FD8D0864B1B6813F4003F03D0EB
:102248006368002B00F09F81236813F0020F54D0BD
:102258007F4B9B6813F00C0F3ED07D4B9B6803F0BF
:102268000C03082B33D0E368002B68D0794B01228C
:102278001A60FFF75DF80546754B1B6813F0020FEF
:1022880054D1FFF755F8401B0228F5D903207FE108
:102298006F4A136843F480331360B5E76C4B1A68D0
:1022A80042F480221A601A6842F480321A60ABE75E
:1022B800FFF73EF80546664B1B6813F4003FC3D092
:1022C800FFF736F8401B6428F5D9032060E1604B1E
:1022D8005B6813F4800FC6D15D4B1B6813F0020FC7
:1022E80003D0E368012B40F05081594A136823F06A
:1022F800F803216943EAC1031360236813F0080F48
:1023080042D063696BB3534B0122C3F8802EFFF7A9
:102318000FF805464E4B5B6F13F0020F34D1FFF7F1
:1023280007F8401B0228F5D9032031E1484A136811
:1023380023F0F803216943EAC1031360DDE7454B45
:1023480000221A60FEF7F4FF0546414B1B6813F0A4
:10235800020FD2D0FEF7ECFF401B0228F5D903206C
:1023680016E13C4B0022C3F8802EFEF7E1FF05463C
:10237800374B5B6F13F0020F06D0FEF7D9FF401BF7
:102388000228F5D9032003E1236813F0040F77D05E
:102398002F4B1B6C13F0805F33D1002301932C4B20
:1023A8001A6C42F080521A641B6C03F0805301933C
:1023B800019B0125284B1B6813F4807F23D0A36859
:1023C800012B34D0052B38D0214B1A6F22F0010293
:1023D8001A671A6F22F004021A67A368002B3DD00F
:1023E800FEF7A6FF06461A4B1B6F13F0020F46D1E5
:1023F800FEF79EFF801B41F288339842F3D90320F1
:10240800C6E00025D6E7144A136843F480731360C6
:10241800FEF78EFF0646104B1B6813F4807FCED163
:10242800FEF786FF801B0228F5D90320B0E0084A92
:10243800136F43F001031367CFE7054B1A6F42F0A0
:1024480004021A671A6F42F001021A67C5E700BF53
:10245800003802400000474200700040FEF768FF65
:102468000646524B1B6F13F0020F08D0FEF760FFB1
:10247800801B41F288339842F3D9032088E0EDB9F4
:10248800A369002B00F08380484A926802F00C028E
:10249800082A51D0022B17D0454B00221A66FEF7A6
:1024A80047FF0446414B1B6813F0007F42D0FEF7FC
:1024B8003FFF001B0228F5D9032069E03B4A136C53
:1024C80023F080531364DBE7394B00221A66FEF7CA
:1024D8002FFF0546354B1B6813F0007F06D0FEF72B
:1024E80027FF401B0228F5D9032051E0E369226A3F
:1024F8001343626A43EA8213A26A5208013A43EA22
:102508000243E26A43EA0263284A5360284B0122E5
:102518001A66FEF70DFF0446244B1B6813F0007F74
:1025280006D1FEF705FF001B0228F5D903202FE08E
:1025380000202DE000202BE0012B2BD01B4B5B68EB
:1025480003F48001E269914226D103F03F02216A37
:102558008A4223D1616A47F6C0721A40B2EB811FE2
:102568001ED103F44031A26A5208013AB1EB024F7E
:1025780018D103F07063E26AB3EB026F14D1002044
:1025880006E001207047012002E0012000E0002061
:1025980002B070BD0120FBE70120F9E70120F7E751
:1025A8000120F5E70120F3E70120F1E700380240B8
:1025B8000000474208B5264B9B6803F00C03042B28
:1025C80041D0082B41D1224B5A6802F03F025B6888
:1025D80013F4800F12D01E4B5968C1F388111D489F
:1025E8000023A1FB0001FDF7CBFD194B5B68C3F38A
:1025F800014301335B00B0FBF3F008BD144B58688E
:10260800C0F388104FEA401CBCEB000C6EEB0E0EBA
:102618004FEA8E1343EA9C634FEA8C11B1EB0C012D
:1026280063EB0E03DB0043EA5173C90011EB000CA6
:1026380043F10003990200234FEA8C2041EA9C51A0
:10264800FDF79EFDD1E70348D7E70348D5E700BF6C
:1026580000380240001BB7000024F400002800F0F6
:102668009B8070B50D4604464F4B1B6803F007036B
:102678008B4208D2CBB24C4A1370136803F007039D
:102688008B4240F08B80236813F0020F17D013F0B1
:10269800040F04D0454A936843F4E05393602368D9
:1026A80013F0080F04D0414A936843F460439360E1
:1026B8003E4A936823F0F003A1680B4393602368B4
:1026C80013F0010F32D06368012B21D09A1E012A22
:1026D80025D9364A126812F0020F61D033498A6848
:1026E80022F0030213438B60FEF722FE06462F4BAF
:1026F8009B6803F00C036268B3EB820F16D0FEF7F9
:1027080017FE801B41F288339842F0D9032042E03B
:10271800264A126812F4003FE0D101203BE0234A28
:10272800126812F0007FD9D1012034E01E4B1B68DB
:1027380003F00703AB4207D9EAB21B4B1A701B68B8
:1027480003F00703AB422DD1236813F0040F06D022
:10275800164A936823F4E053E1680B4393602368B7
:1027680013F0080F07D0114A936823F460432169D6
:1027780043EAC1039360FFF71DFF0C4B9B68C3F34B
:1027880003130B4AD35CD8400A4B18600A4B1868ED
:10279800FEF782FD002070BD012070470120FAE796
:1027A8000120F8E70120F6E7003C0240003802402B
:1027B800B43500080000002008000020014B18680C
:1027C800704700BF0000002008B5FFF7F7FF044B73
:1027D8009B68C3F38223034AD35CD84008BD00BF7B
:1027E80000380240AC35000808B5FFF7E7FF044B96
:1027F8009B68C3F34233034AD35CD84008BD00BF8B
:1028080000380240AC35000800285AD010B50446FC
:10281800436A33B94368B3F5827F05D00023C361A7
:1028280002E00023036143610023A36294F851305E
:10283800002B40D0022384F851302268136823F01B
:1028480040031360636803F48273A26802F40442CD
:102858001343E26802F400621343226902F00202A1
:102868001343626902F001021343A26902F4007281
:102878001343E26902F038021343226A02F080022D
:102888001343A26A02F40052216813430B60638B5E
:1028980003F00403626A02F01002216813434B60DC
:1028A8002268D36923F40063D361002060650123A3
:1028B80084F8513010BD84F850302046FDF778FF79
:1028C800B8E701207047000030B4036A23F0010321
:1028D8000362036A4268846924F0730C0C6844EA52
:1028E8000C0423F0020C8B6843EA0C03114DA84238
:1028F80003D005F58065A84205D123F00803CD680B
:102908002B4323F004030B4DA84203D005F5806543
:10291800A84207D122F440724D6945EA020C8A693F
:1029280042EA0C02426084614A684263036230BC36
:10293800704700BF0000014030B4036A23F480737D
:102948000362036A4268C46924F0730C0C6844EAA1
:102958000C0523F400738C6843EA0423114CA0424D
:1029680003D004F58064A04206D123F40063CC6848
:1029780043EA042323F480630A4CA04203D004F5FD
:102988008064A04207D122F440524C6942EA041202
:102998008C6942EA04124260C5614A68C2630362F4
:1029A80030BC70470000014030B4036A23F4805300
:1029B8000362036A4468C26922F4E6420D6842EA87
:1029C800052223F400538D6843EA0533094DA842D4
:1029D80003D005F58065A84204D124F480444D69EC
:1029E80044EA85144460C2614A680264036230BCE8
:1029F800704700BF0000014010B4036A046A24F065
:102A080001040462846924F0F00C4CEA021223F0F9
:102A18000A030B438261036210BC704710B4036A57
:102A280023F0100303628469036A24F4704C4CEAAF
:102A3800023223F0A00343EA01138261036210BC4F
:102A48007047836823F070030B4343F007038360E8
:102A5800704770470368304A904212D0B0F1804FF7
:102A68000FD0A2F57C4290420BD002F580629042D2
:102A780007D002F58062904203D002F57842904276
:102A880003D123F070034A681343234A90422AD0A3
:102A9800B0F1804F27D0A2F57C42904223D002F5B6
:102AA800806290421FD002F5806290421BD002F5EE
:102AB8007842904217D002F57052904213D002F536
:102AC800806290420FD002F5806290420BD0A2F54E
:102AD8009832904207D002F58062904203D002F506
:102AE8008062904203D123F44073CA68134323F0F1
:102AF80080034A69134303608B68C3620B6883626F
:102B0800054B984203D003F58063984201D10B69C5
:102B180003630123436170470000014040B310B5CF
:102B2800044690F83D30F3B1022384F83D30214645
:102B380051F8040BFFF78EFF012384F8463084F820
:102B48003E3084F83F3084F8403084F8413084F8CF
:102B5800423084F8433084F8443084F8453084F8AF
:102B68003D30002010BD80F83C30FDF71BFFDBE74F
:102B78000120704740B310B5044690F83D30F3B1DA
:102B8800022384F83D30214651F8040BFFF762FF19
:102B9800012384F8463084F83E3084F83F3084F8C6
:102BA800403084F8413084F8423084F8433084F867
:102BB800443084F8453084F83D30002010BD80F85A
:102BC8003C30FFF746FFDBE70120704730B4036A6B
:102BD80023F010030362036A4468826922F4E64220
:102BE8000D6842EA052223F020038D6843EA0513A5
:102BF800114DA84203D005F58065A84206D123F0FF
:102C08008003CD6843EA051323F040030A4DA84228
:102C180003D005F58065A84207D124F440644D69C6
:102C280044EA85048D6944EA8504446082614A68FF
:102C38008263036230BC70470000014090F83C306A
:102C4800012B28D010B50446012380F83C300C2A0B
:102C58001CD8DFE802F0071B1B1B0C1B1B1B111BDE
:102C68001B1B16000068FFF72FFE00200FE000680E
:102C7800FFF7ACFF00200AE00068FFF75DFE0020C8
:102C880005E00068FFF790FE002000E00120002327
:102C980084F83C3010BD0220704710B4846824F4D6
:102CA8007F4C42EA03220A4342EA0C02826010BCCB
:102CB800704790F83C30012B78D010B504460123BA
:102CC80080F83C30022380F83D300268936823F492
:102CD8007F4323F0770393600B68602B4CD023D895
:102CE800402B54D011D8202B03D00AD80BB1102B6D
:102CF80005D119462068FFF7A4FE002028E001202E
:102D080026E0302BF5D0012022E0502B0AD1CA68EA
:102D180049680068FFF770FE50212068FFF791FEB0
:102D2800002015E0012013E0B3F5805F3AD0B3F539
:102D3800005F14D0702B37D1CB684A688968006867
:102D4800FFF7ABFF2268936843F077039360002096
:102D5800012384F83D30002384F83C3010BDCB6853
:102D68004A6889680068FFF798FF2268936843F407
:102D7800804393600020EBE7CA6849680068FFF762
:102D88004DFE60212068FFF75CFE0020E0E7CA687E
:102D980049680068FFF730FE40212068FFF751FEC0
:102DA8000020D5E70020D3E70120D1E702207047B3
:102DB80010B50468A26822F070024B68134323F030
:102DC80007030A681A43A2604B68502B30D00BD90E
:102DD800602B34D0702B43D10B698A68C9680068AE
:102DE800FFF75BFF002010BD402B0CD02ED8202B06
:102DF8002ED004D873B3102B2ED10020F3E7302B3C
:102E08002CD10020EFE70B68052B2BD003681C6A38
:102E18001A6A22F001021A620268936923F0F00329
:102E2800096943EA0113936103681C620020DAE729
:102E38000A6989680068FFF7DFFD0020D3E70A699F
:102E480089680068FFF7EAFD0020CCE70120CAE79F
:102E58000020C8E70020C6E70120C4E70120C2E738
:102E68000120C0E70120BEE790F83C30012B22D0BA
:102E780010B50446012380F83C30022380F83D3029
:102E8800FFF796FF80B92268D36823F04003D36028
:102E98002268D36823F48043D360012384F83D304B
:102EA800002384F83C3010BD012084F83D00002345
:102EB80084F83C30F7E702207047000090F83C2087
:102EC800012A3CD010B40346012280F83C2002229B
:102ED80080F83D2002685068946820F0700C0868FB
:102EE80040EA0C0050601A68164882421AD0B2F1C3
:102EF800804F17D0A0F57C40824213D000F5806047
:102F080082420FD000F5806082420BD000F57840F5
:102F1800824207D000F57050824203D0A0F5943069
:102F2800824204D124F0800449682143916001223F
:102F380083F83D20002083F83C0010BC7047022035
:102F4800704700BF00000140024690F83C30012B5A
:102F580021D0012380F83C30CB6823F44073886883
:102F6800034323F480634868034323F40063086839
:102F7800034323F480530869034323F40053486947
:102F8800034323F48043C9690B4311684B64002051
:102F980082F83C00704702207047000010B50446D4
:102FA8000268136923F44053C1680B4313618368B3
:102FB80002691A4343691A43C3691A430168CB6813
:102FC80023F4164323F00C031343CB6002685369C0
:102FD80023F4407381690B4353610368314A934278
:102FE80006D002F58062934202D0FFF7EDFB01E0C4
:102FF800FFF7FAFBE369B3F5004F29D00021031866
:1030080049411B1841F10001C90041EA5371DB0035
:10301800181863684FEA83024FEA937341F100017D
:10302800FDF7AEF8204AA2FB00314909642303FBEF
:1030380011031B013233A2FB03235B0903F0F002E7
:1030480002EB011203F00F03216813448B6010BDDB
:103058000023021843EB0301121841F10001C900D3
:1030680041EA5271D200101841F1000162689218C9
:103078005B41FDF785F80C4AA2FB0031490964233E
:1030880003FB1103DB003233A2FB03235B095A0065
:1030980002F4F87202EB011203F0070321681344EB
:1030A8008B60D4E7001001401F85EB5158B310B571
:1030B800044690F83D300BB3242384F83D30226851
:1030C800D36823F40053D3602046FFF767FF2268D4
:1030D800136923F4904313612268536923F02A0388
:1030E80053612268D36843F40053D36000202064FE
:1030F800202384F83D3084F83E3010BD80F83C3001
:10310800FDF77CFFD8E70120704700002DE9F04764
:10311800089D0E4604460F46002B4AD194468C451E
:10312800B2FA82F260D942B1C2F12003974020FA84
:1031380003F30CFA02FC1F4394404FEA1C4E1FFA9B
:103148008CF6B7FBFEF1230C0EFB117743EA07431D
:1031580001FB06F098420AD91CEB030301F1FF3783
:1031680080F01581984240F21281023963441B1A9B
:10317800A4B2B3FBFEF00EFB103344EA034400FB99
:1031880006F6A6420AD91CEB040400F1FF3380F0CE
:103198000081A64240F2FD806444023840EA0140C2
:1031A800A41B00211DB1D4400023C5E90043BDE89C
:1031B800F0878B4205D90DB1C5E900010021084609
:1031C800F5E7B3FA83F1002946D1B34202D382422C
:1031D80000F2F580841A66EB030201201746002DE1
:1031E800E5D0C5E90047E2E7002A40F09380A1EB6B
:1031F8000C034FEA1C471FFA8CFE0121B3FBF7F6BC
:1032080007FB1630230C43EA00430EFB06F09842F6
:1032180008D91CEB030306F1FF3802D2984200F2EA
:10322800D08046461B1AA4B2B3FBF7F007FB103355
:1032380044EA03440EFB00FEA64508D91CEB04042F
:1032480000F1FF3302D2A64500F2B6801846A4EB7F
:103258000E0440EA0640A5E7C1F120078B4022FA98
:1032680007FC4CEA030C06FA01FE20FA07F426FADA
:1032780007F344EA0E0400FA01F84FEA1C404FEA4B
:103288001449B3FBF0FE1FFA8CF600FB1E3349EA23
:1032980003430EFB06F9994502FA01F20BD91CEB20
:1032A80003030EF1FF3A80F08580994540F2828051
:1032B800AEF1020E6344A3EB0909A4B2B9FBF0F323
:1032C80000FB139944EA094403FB06F6A64208D911
:1032D8001CEB040403F1FF3068D2A64266D9023B16
:1032E800644443EA0E40A41BA0FB02E6B4427346C2
:1032F800B14652D34FD05DB1B8EB030264EB090479
:1033080004FA07F722FA01F31F43CC40C5E9007419
:1033180000214CE7C2F1200120FA01F30CFA02FC6B
:1033280026FA01F1964033434FEA1C471FFA8CFEF8
:10333800B1FBF7F007FB1016190C41EA064100FB38
:103348000EF68E4204FA02F408D91CEB010100F1D2
:10335800FF382DD28E422BD902386144891B9BB28B
:10336800B1FBF7F607FB161143EA014306FB0EF122
:10337800994208D91CEB030306F1FF3814D299428D
:1033880012D9023E63445B1A46EA004136E73946E1
:10339800EDE6184602E7F045ADD2BEEB020366EB58
:1033A8000C060138B146A6E74646ECE7034698E71F
:1033B8004046D3E7D6467EE76444023847E70846E6
:1033C8000DE7023E63442DE7830730B547D0541E0E
:1033D800002A3ED0CAB2034601E0013C39D303F8C3
:1033E800012B9D07F9D1032C2CD9CDB205EB05256E
:1033F8000F2C05EB054535D9A4F1100222F00F0C6E
:1034080003F1100EE6444FEA121C1A46C2E90055B1
:10341800C2E9025510327245F8D10CF1010214F0DC
:103428000C0F03EB021204F00F0C13D0ACF10403E1
:1034380023F003030433134442F8045B9342FBD1A3
:103448000CF003042CB1C9B21C4403F8011BA342BD
:10345800FBD130BD64461346002CF4D1F9E703468E
:103468001446C0E71A46A446E0E700BF70B50F4B04
:103478000F4DAB42A3EB050607D0B610002455F854
:10348800043B01349847A642F9D800F07FF8094D6B
:10349800094B5E1BAB424FEAA60606D0002455F83E
:1034A800043B01349847A642F9D870BDD4350008CA
:1034B800D4350008D4350008DC350008704700BF53
:1034C800704700BF024B13B1024800F005B87047BF
:1034D80000000000ED340008002301461A46184693
:1034E80000F014B838B5074D074C2C1BA41005D0B4
:1034F800013C55F8043D9847002CF9D1BDE8384007
:1035080000F04AB8E0350008DC3500082DE9F8433A
:103518001B4D0646286898460F469146FFF7CEFF92
:10352800184B1C681CB3286865681F2D22DC4EB92F
:103538006B1C0235636044F82570FFF7C1FF00205B
:10354800BDE8F88304EB85010123C1F88890D4F81D
:103558008821AB401A43022EC4F88821C1F808819B
:10356800E6D1D4F88C211A43C4F88C21E0E7064C44
:103578001C60D8E7FFF7A4FF4FF0FF30E0E700BF7B
:103588000C0000202405002028050020F8B500BF05
:10359800F8BC08BC9E467047F8B500BFF8BC08BC2C
:0435A8009E46704784
:1035AC000000000001020304000000000000000005
:1035BC00010203040607080900061016000610167F
:0835CC0048FBFF7F0100000035
:0835D400CD34000825020008B7
:0435DC00FD010008E5
:1035E0000024F4000100000010000000200500206D
:040000050800124D90
:00000001FF
